:1000030043BA80E4F5937594FFF591F592F595F570
:1000130096F5B1F5B2F5B3F5B4F5C9F5CAF5CBF577
:10002300CCF5E1F5E2C2C0C2807FFA120074D2803F
:10003300C2817FFA120074D281C2827FFA120074E5
:10004300D282C2837FFA120074D283C2847FFA12EF
:100053000074D284C2857FFA120074D285C2867F6F
:10006300FA120074D286C2877FFA120074D2878094
:01007300B6D6
:0F0074007D607C09ED1D70011C144C70F7DFF1ED
:01008300225A
:0300000002008477
:0C008400787FE4F6D8FD758107020003C8
:00000001FF
